:100000000C942A000C943F000C943F000C943F0089
:100010000C943F000C943F000C943F000C943F0064
:100020000C943F000C943F000C943F000C943F0054
:100030000C943F000C943F000C943F000C943F0044
:100040000C943F000C943F000C943F000C943F0034
:100050000C943F0011241FBECFE5D8E0DEBFCDBF1A
:1000600010E0A0E6B0E0E4E4F4E002C005900D92F8
:10007000A43BB107D9F70E9477010C9420020C949D
:100080000000982F9770869586958695813021F18E
:1000900030F08230F1F1833009F458C008956111D5
:1000A0000EC04BB321E030E0B90102C0660F771FEC
:1000B0009A95E2F7CB01809584238BBB08954BB3CF
:1000C00021E030E0B90102C0660F771F9A95E2F790
:1000D000CB01842B8BBB089561110EC048B321E086
:1000E00030E0B90102C0660F771F9A95E2F7CB01A5
:1000F0008095842388BB089548B321E030E0B9019E
:1001000002C0660F771F9A95E2F7CB01842B88BB5C
:10011000089561110EC045B321E030E0B90102C07D
:10012000660F771F9A95E2F7CB018095842385BBF4
:10013000089545B321E030E0B90102C0660F771F92
:100140009A95E2F7CB01842B85BB089561110EC00F
:1001500042B321E030E0B90102C0660F771F9A95E3
:10016000E2F7CB018095842382BB089542B321E05E
:1001700030E0B90102C0660F771F9A95E2F7CB0114
:10018000842B82BB0895813041F028F0823039F011
:10019000833039F008956BBB089568BB089565BB43
:1001A000089562BB089561E08BE00E94410085E301
:1001B0008A95F1F7000060E08BE00E9441008FE338
:1001C0009FE10197F1F700C000000895CF93C82F79
:1001D0006BB36F70807F682B80E00E94C30060E08B
:1001E00089E00E94410060E08AE00E9441000E9494
:1001F000D3006BB36F7020E1C29FC0011124682B44
:1002000080E00E94C30060E089E00E94410060E05D
:100210008AE00E9441000E94D300CF91089560E0DF
:100220008AE00E9441002FEF89EF90E0215080404A
:100230009040E1F700C0000083E30E94E60082E303
:100240000E94E60088E20E94E6008CE00E94E60040
:1002500086E00E94E60081E00E94E60080E80E94BD
:10026000E600089581E00E94E6008FE39FE1019798
:10027000F1F700C0000080E80E94E6000895CF93E7
:10028000C82F6BB36F70807F682B80E00E94C30023
:1002900061E089E00E94410060E08AE00E94410044
:1002A0000E94D3006BB36F7020E1C29FC001112484
:1002B000682B80E00E94C30061E089E00E94410059
:1002C00060E08AE00E9441000E94D300CF9108952F
:1002D000CF93DF93EC018881882331F021960E942F
:1002E0003F0189918111FBCFDF91CF91089583E781
:1002F00090E00E94A2010E940F0180E80E94E600A7
:1003000080E690E00E9468012FEF83ED90E321509A
:1003100080409040E1F700C000000E94320180EC74
:100320000E94E6008CE690E00E9468012FEF83EDCA
:1003300090E3215080409040E1F700C0000080E051
:1003400090E00895FC0190E041E050E0292F2695CF
:1003500026952695392F377080818130A1F521307F
:1003600089F028F02230C9F0233011F163C08AB33C
:10037000BA0102C0660F771F3A95E2F79B01282B5E
:100380002ABB58C087B3BA0102C0660F771F3A95DF
:10039000E2F79B01282B27BB4DC084B3BA0102C0F2
:1003A000660F771F3A95E2F79B01282B24BB42C0CA
:1003B00081B3BA0102C0660F771F3A95E2F79B013D
:1003C000282B21BB37C0213091F028F02230D9F002
:1003D000233029F12FC02AB3BA0102C0660F771F5C
:1003E0003A95E2F7862F809582238ABB23C027B3F4
:1003F000BA0102C0660F771F3A95E2F7862F809503
:10040000822387BB17C024B3BA0102C0660F771FCF
:100410003A95E2F7862F8095822384BB0BC021B3E7
:10042000BA0102C0660F771F3A95E2F7862F8095D2
:10043000822381BB9F5F3296903209F087CF089567
:04044000F894FFCF5E
:1004440048656C6C6F20576F726C6400477265610D
:10045400742E0001000000010001000100010001F0
:100464000001000100010001000100010001000180
:100474000001000100010001000100010001000170
:100484000001000100010001000100010001000160
:040494000001000063
:00000001FF
