S00D00005357435F332E7372656398
S11300000C942A000C9447000C9447000C9447006D
S11300100C9447000C9447000C9447000C94470040
S11300200C9447000C9447000C9447000C94470030
S11300300C9447000C9447000C9447000C94470020
S11300400C9447000C9447000C9447000C94470010
S11300500C94470011241FBECFE5D8E0DEBFCDBF0E
S113006010E0A0E6B0E0E2E8FCE002C005900D92EA
S1130070A83EB107D9F710E0A8EEB0E001C01D9288
S1130080A33FB107E1F70E9436030C943F060C949A
S11300900000982F9770869586958695813031F16A
S11300A0813038F0823009F43EC0833009F074C0E6
S11300B057C0662371F44BB321E030E0B90102C0AC
S11300C0660F771F9A95E2F7CB01809584238BBB4B
S11300D008954BB321E030E0B90102C0660F771FE9
S11300E09A95E2F7CB01842B8BBB0895662371F4B8
S11300F048B321E030E0B90102C0660F771F9A953A
S1130100E2F7CB018095842388BB089548B321E0AE
S113011030E0B90102C0660F771F9A95E2F7CB0170
S1130120842B88BB0895662371F445B321E030E045
S1130130B90102C0660F771F9A95E2F7CB0180954B
S1130140842385BB089545B321E030E0B90102C0A2
S1130150660F771F9A95E2F7CB01842B85BB089530
S1130160662371F442B321E030E0B90102C0660FA6
S1130170771F9A95E2F7CB018095842382BB08957B
S113018042B321E030E0B90102C0660F771F9A95AF
S1130190E2F7CB01842B82BB0895813049F0813092
S11301A028F0823039F0833041F406C06BBB0895E7
S11301B068BB089565BB089562BB0895982F977036
S11301C0869586958695813091F0813028F082302D
S11301D0C9F0833069F521C029B330E0A90102C018
S11301E0559547959A95E2F7CA018170089526B30B
S11301F030E0A90102C0559547959A95E2F7CA01E6
S11302008170089523B330E0A90102C05595479544
S11302109A95E2F7CA018170089520B330E0A901EC
S113022002C0559547959A95E2F7CA0181700895E1
S113023080E00895813049F0813028F0823039F02F
S1130240833049F406C08BB3089588B3089585B309
S1130250089582B3089580E008951F93CF93DF93A8
S1130260EC01162F0E94FD011834C1F48FE39CE9C0
S11302700197F1F700C0000080E060E040E650E044
S11302800E94E50181E060E0AE010E94E5018FE398
S11302909CE90197F1F700C000002DC01D34A9F4BA
S11302A080E80E94C60180E060E040E750E00E94E0
S11302B0E50181E060E0AE010E94E5018FE39CE985
S11302C00197F1F700C0000016C01334A1F480E8D0
S11302D00E94C60180E060E041E850E00E94E50130
S11302E081E060E0AE010E94E5018FE39CE90197A3
S11302F0F1F700C000008FE39CE90197F1F700C01B
S11303000000DF91CF911F9108958BE061E00E947E
S1130310490085E38A95F1F700008BE060E00E94D4
S113032049008FE39FE10197F1F700C000000895B1
S1130330CF93C82F6BB3807F6F70682B80E00E94CF
S1130340CD0089E061E00E9449000E9485016BB301
S1130350C295C07F6F706C2B80E00E94CD0089E055
S113036061E00E9449000E948501CF910895CF93D6
S1130370DF93EC018881882331F021960E94980153
S113038089918823D9F7DF91CF910895CF93C82F0E
S11303906BB3807F6F70682B80E00E94CD0089E092
S11303A060E00E9449000E9485016BB3C295C07F42
S11303B06F706C2B80E00E94CD0089E060E00E94A9
S11303C049000E948501CF910895CF93DF93EA01FC
S11303D0603180F4882331F4862F8F7080680E9406
S11303E0C60105C0862F8F70806C0E94C601CE01A5
S11303F00E94B701DF91CF91089581E00E94C60168
S113040080E80E94C60108958AE060E00E944900E5
S113041088E20E94C6018CE00E94C60186E00E9428
S1130420C60181E00E94C6018FE39FE10197F1F7C5
S113043000C0000080E80E94C6018FEF93ECA9E0A1
S113044081509040A040E1F700C000000895CF9390
S113045040E250E080E062E970E0A1E0B0E0982F73
S1130460969596959695C82FC770E82FF0E0EE0FF5
S1130470FF1FE60FF71F3081313091F5913091F075
S1130480913030F09230C1F0933009F05DC01EC05D
S11304909AB39D0102C0220F331FCA95E2F7292B9C
S11304A02ABB52C097B39D0102C0220F331FCA95C5
S11304B0E2F7292B27BB48C094B39D0102C0220F49
S11304C0331FCA95E2F7292B24BB3EC091B39D018B
S11304D002C0220F331FCA95E2F7292B21BB34C077
S11304E0913091F0913028F09230C9F0933061F559
S11304F021C09AB39D0102C0220F331FCA95E2F7AF
S1130500209529232ABB20C097B39D0102C0220F46
S1130510331FCA95E2F72095292327BB15C094B34E
S11305209D0102C0220F331FCA95E2F720952923AB
S113053024BB0AC091B39D0102C0220F331FCA9588
S1130540E2F72095292321BB8F5F4150504009F0E9
S113055086CFCF9108952091E800213079F4EBED16
S1130560F0E0A82FB92FCF010A9621912D93E81717
S1130570F907D9F71092E80081E0089580E0089522
S1130580CF93DF938DB79EB70A970FB6F8949EBFAB
S11305900FBE8DBFEDB7FEB73196C9EED0E0ADB753
S11305A0BEB71296DC93CE93119782ED90E09383BD
S11305B082838091E5009091E600958384838DE4A5
S11305C090E09783868381E390E0918780870E94FF
S11305D068038DB79EB70A960FB6F8949EBF0FBEF8
S11305E08DBFCE01DF91CF9108950F931F93CF93C9
S11305F0DF938091E8008823A9F40BED10E0C0E0BC
S1130600D0E00E94C002FC01EC0FFD1F8081F801C4
S113061081938F012196CA30D10599F781E08093A7
S1130620E80001C080E0DF91CF911F910F91089500
S1130630AC01FB0190819C3289F020E030E080E045
S1130640240F351FF90190838F5F282F30E0FB01C1
S1130650E20FF31F90819C3299F703C020E030E051
S113066080E0240F351FF90110820895CF93DF93A2
S1130670CDB7DEB72E970FB6F894DEBF0FBECDBF51
S11306800E9427028FEF93ECA9E081509040A04094
S1130690E1F700C000000E9404020E94F502CE01AE
S11306A001960E94AB02CE010B96BE016F5F7F4F95
S11306B00E941803833011F484E001C085E0FE0138
S11306C0E80FF11D8381803311F48B9A939AFFCF45
S11306D0AEE0B0E0EEE6F3E00C9416060D891E8958
S11306E086E08C831A8309838FEF9FE79E838D8333
S11306F0AE01475E5F4FCE0101966F89788D0E94EF
S11307008A03EF81F885E00FF11F10822E96E4E052
S11307100C943206ADE0B0E0E0E9F3E00C94080696
S11307203C017D876C875A01FC0117821682838104
S113073081FFC8C12E010894411C511CF30193810F
S1130740EC85FD8593FD859193FF8191FD87EC8771
S1130750882309F4B3C1853241F493FD859193FF55
S11307608191FD87EC87853229F490E0B3010E94E2
S11307707E05E4CFFF24EE2410E01032B0F48B3277
S113078069F08C3228F4803251F0833271F40BC05A
S11307908D3239F0803349F411602CC0126014603A
S11307A029C0186027C0106125C017FD2EC0282F4E
S11307B020532A3098F416FF08C08F2D880FF82E86
S11307C0FF0CFF0CF80EF20E15C08E2D880FE82ECC
S11307D0EE0CEE0CE80EE20E10620CC08E3221F428
S11307E016FD6CC1106406C08C3611F4106802C08A
S11307F0883659F4EC85FD8593FD859193FF8191AD
S1130800FD87EC87882309F0B8CF982F955493304F
S113081018F09052933038F424E030E0A20EB31E66
S11308203FE339830FC0833631F0833781F083355A
S113083009F05AC022C0F5018081898322E030E0AA
S1130840A20EB31E21E0C22ED12C420114C092E0AC
S1130850292E312C2A0C3B1CF5018080918016FF37
S113086003C06F2D70E002C06FEF7FEFC4010E94E0
S113087073056C0151011F7715C082E0282E312CBD
S11308802A0C3B1CF5018080918016FF03C06F2D5C
S113089070E002C06FEF7FEFC4010E9468056C0135
S11308A01068510113FD1CC006C080E290E0B30142
S11308B00E947E05EA948E2D90E0C816D906A8F30E
S11308C00FC0F40117FD859117FF81914F0190E04E
S11308D0B3010E947E05E110EA940894C108D1088E
S11308E0C114D10471F7E7C0843611F0893651F58B
S11308F0F50117FF07C080819181A281B38124E0B3
S113090030E008C080819181AA2797FDA095BA2F75
S113091022E030E0A20EB31E012F0F76B7FF08C00D
S1130920B095A095909581959F4FAF4FBF4F0068AC
S1130930BC01CD01A2012AE030E00E94AA05D82E14
S1130940D4183FC0853721F41F7E2AE030E020C050
S1130950197F8F36A9F0803720F4883509F0AEC0AE
S11309600BC0803721F0883709F0A8C001C010619E
S113097014FF09C0146007C014FF08C0166006C045
S113098028E030E005C020E130E002C020E132E0A0
S1130990F50117FF07C0608171818281938144E072
S11309A050E006C06081718180E090E042E050E058
S11309B0A40EB51EA2010E94AA05D82ED418012F98
S11309C00F7706FF09C00E7FDF1430F404FF06C062
S11309D002FD04C00F7E02C01D2D01C01F2D802FFB
S11309E090E004FF0CC0FE01ED0DF11D20812033C9
S11309F011F4097E09C002FF06C01E5F05C0867897
S1130A009070009709F01F5F802E992403FD12C097
S1130A1000FF0DC0FD2C1E1550F4FE0CF11A1E2D06
S1130A2006C080E290E0B3010E947E051F5F1E15A0
S1130A30C0F304C01E1510F4E11A01C0EE2484FEB4
S1130A400FC080E390E0B3010E947E0582FE1FC0C8
S1130A5081FE03C088E590E010C088E790E00DC0F7
S1130A60C40186789070009791F081FC02C080E206
S1130A7001C08BE207FD8DE290E0B3010E947E0588
S1130A8006C080E390E0B3010E947E05FA94DF146F
S1130A90C0F3DA94F201ED0DF11D808190E0B30111
S1130AA00E947E05DD20A9F706C080E290E0B30134
S1130AB00E947E05EA94EE20C1F740CEF3018681C0
S1130AC0978102C08FEF9FEF2D96E2E10C942406EC
S1130AD0FC010590615070400110D8F78095909505
S1130AE08E0F9F1F0895FC0161507040019001100A
S1130AF0D8F7809590958E0F9F1F08950F931F939D
S1130B00CF93DF938C01EB018B8181FF1BC082FFAC
S1130B100DC02E813F818C819D812817390764F493
S1130B20E881F9810193F983E88306C0E885F985B2
S1130B30802F0995009731F48E819F8101969F83C0
S1130B408E8302C00FEF1FEFC801DF91CF911F9179
S1130B500F910895FA01AA27283051F1203181F12B
S1130B60E8946F936E7F6E5F7F4F8F4F9F4FAF4FB1
S1130B70B1E03ED0B4E03CD0670F781F891F9A1FC4
S1130B80A11D680F791F8A1F911DA11D6A0F711D78
S1130B90811D911DA11D20D009F468943F912AE084
S1130BA0269F11243019305D3193DEF6CF0108956C
S1130BB0462F4770405D4193B3E00FD0C9F7F6CF9D
S1130BC0462F4F70405D4A3318F0495D31FD405265
S1130BD0419302D0A9F7EACFB4E0A69597958795FB
S1130BE077956795BA95C9F70097610571050895DA
S1130BF09B01AC010A2E0694579547953795279586
S1130C00BA95C9F7620F731F841F951FA01D08951D
S1130C102F923F924F925F926F927F928F929F9208
S1130C20AF92BF92CF92DF92EF92FF920F931F93F6
S1130C30CF93DF93CDB7DEB7CA1BDB0B0FB6F894A7
S1130C40DEBF0FBECDBF09942A88398848885F84E7
S1130C506E847D848C849B84AA84B984C884DF8058
S1130C60EE80FD800C811B81AA81B981CE0FD11D3C
S1130C700FB6F894DEBF0FBECDBFED010895F89412
S1050C80FFCFA0
S1130C82484F545F54656D702046616E3A4F4E0072
S1130C924D65642054656D702046616E3A526479E4
S1130CA2004C6F772054656D702046616E3A4F4652
S1130CB246000100010001000100010001000100E1
S1130CC20100010001000100010001000100010016
S1130CD20100010001000100010001000100010006
S1130CE201000100010001000100010001000100F6
S1130CF2010025642C25632C256300FF00000000FD
S10B0D020000000000E80300FA
S9030000FC
